:020000040800F2
:100000002806002001010008330200082F02000822
:1000100031020008890100087D0700080000000087
:10002000000000000000000000000000C9040008FB
:100030008B01000800000000E1020008D90500085B
:100040001701000817010008170100081701000830
:100050001701000817010008170100081701000820
:100060001701000817010008170100081701000810
:100070001701000817010008170100081701000800
:1000800017010008170100081701000817010008F0
:1000900017010008170100081701000817010008E0
:1000A00017010008170100081701000817010008D0
:1000B00017010008170100081701000817010008C0
:1000C00017010008170100081701000817010008B0
:1000D000170100082D060008170100081701000885
:1000E000170100081701000817010008DFF80CD0FD
:1000F00000F038F800480047F30E000828060020FA
:1001000005480047FEE7FEE7FEE7FEE7FEE7FEE7FD
:10011000FEE7FEE7FEE7FEE7ED00000810B500226F
:1001200000E0521C835C8C5CA34201D1002BF8D10F
:10013000D8B2E1B2401A10BD30B50B4601460020DE
:100140002022012409E021FA02F59D4205D303FA99
:1001500002F5491B04FA02F52844151EA2F101021A
:10016000F1DC30BD064C074D06E0E06840F00103CD
:1001700094E8070098471034AC42F6D3FFF7BAFF73
:1001800080100008A0100008FEE77047F0B5CA789C
:10019000002502F00F03D20601D58A7813430A78AE
:1001A0004FF00F0E12F0FF0F4FF001021CD0046849
:1001B0000F8802FA05F63740B74211D14FEA850C95
:1001C0000EFA0CF724EA070703FA0CF43C43CF7845
:1001D000282F02D0482F02D002E0466100E00661DD
:1001E0006D1C082DE4D304600C88FF2C1ED94468D4
:1001F0005FF0000606F1080702FA07F50F882F40A6
:10020000AF420FD14FEA860C0EFA0CF7BC4303FA4B
:100210000CF73C43CF78282F00D14561CF78482F89
:1002200000D10561761C082EE4D34460F0BDFEE7E2
:10023000FEE7704770B50F23C47801780122F4B14E
:10024000144C2468457804F4E064C4F5E064240A9E
:10025000C4F10406E3408478B5401C402C4301F10E
:10026000E021230181F80034007800F01F018A406A
:100270004009800000F1E020C0F8002170BD01F0CD
:100280001F0082404809800000F1E020C0F8802172
:1002900070BD00000CED00E002490843024908600F
:1002A000704700000000FA050CED00E00907090E98
:1002B000002806DA00F00F0000F1E02080F8141D9D
:1002C000704700F1E02080F800147047024A1140A6
:1002D000014302480160704780FFFF1F08ED00E006
:1002E00070470000044A0029D16901D0014300E0B1
:1002F0008143D1617047000000100240044A002988
:10030000916901D0014300E0814391617047000091
:10031000001002400C48016841F001010160416891
:100320000A4A114041600168094A114001600168B0
:1003300021F480210160416821F4FE0141604FF405
:100340001F01816070470000001002400000FFF8AC
:10035000FFFFF6FE30B51F494A6812F00C031E4A33
:1003600003D0042B01D0082B21D002604A680F2350
:100370001A4C03EA1212A35C0268DA4042604B682E
:10038000072505EA1323E35C22FA03F383604B6835
:1003900005EAD323E35CDA40C2604968032303EA39
:1003A0009131231F595CB2FBF1F1016130BD4A6804
:1003B0004B6802F470124FF0020413F4803F04EB18
:1003C000924202D04B689B0301D5054B00E0024BE3
:1003D0005A43CAE70010024000127A0020000020B1
:1003E00000093D000246002053090949012B0BD0AA
:1003F000022B0BD0D1F8241002F01F0201239340EE
:100400000B4200D0012070470968F5E7096AF3E75D
:10041000001002400248406800F00C0070470000E5
:1004200000100240034A516821F0F001014351607D
:1004300070470000001002400B490A6822F4803225
:100440000A600A6822F480220A60B0F5803F07D073
:10045000B0F5802F03D1086840F4A02008607047F1
:10046000086840F48030F9E700100240034A516800
:1004700021F4E06101435160704700000010024028
:1004800003494A6822F4605242EAC000486070475B
:100490000010024001490866704700000000424217
:1004A000034A5368084323F47C1318435060704791
:1004B00000100240034A516821F0030101435160DA
:1004C0007047000000100240704700000CB500218A
:1004D000264801910091026842F4803202604FF494
:1004E000A063026802F400320092019A521C019249
:1004F000009A12B9019A9A42F3D10268920333D555
:10050000012100911A490A6842F010020A600A6843
:1005100022F003020A600A6842F002020A6041689F
:10052000416041684160416841F4806141604168D7
:1005300021F47C114160416841F4E8114160016897
:1005400041F08071016001688901FCD5416821F0AA
:1005500003014160416841F0020141604168C1F31B
:1005600081010229FAD10CBD00910CBD001002409E
:100570000020024030B585B06846FFF7EBFE04204E
:1005800000F01EF801984FF47A71B0FBF1F14FF0D2
:10059000FF35B1F1807F0DD221F07F404FF0E02494
:1005A000401E60610F212846FFF780FE0020A061F9
:1005B0000720206100212846FFF778FE05B030BDF6
:1005C0004FF0E0210428086903D020F004000861FE
:1005D000704740F00400FAE700F026BC0F4810B561
:1005E000016841F00101016041680D4A114041601C
:1005F00001680C4A11400160016821F4802101600A
:10060000416821F4FE0141604FF41F018160FFF752
:100610005DFF05494FF00060086010BD001002400A
:100620000000FFF8FFFFF6FE08ED00E00E4808B5F9
:100630000088800616D50C48001D00888DF8000043
:100640000A48806800280DD0084869460122103009
:1006500000F0B0FA002805D004481422012120300F
:1006600000F0B8FB08BD0000003801404801002040
:1006700003490A881206FCD50149091D0880704704
:1006800000380140C943018070470029818902D0A8
:1006900041F4005101E021F400518181704710B50F
:1006A000C1F3421301F01F040121A140012B07D027
:1006B000022B07D01430002A026805D00A4304E058
:1006C0000C30F8E71030F6E78A43026010BD0000F6
:1006D00030B50446008A85B00D464CF6FF710840DF
:1006E000E98801432182A1894EF6F3100140A888D0
:1006F0002A8910436A890A431043A081A08A4FF6D1
:10070000FF410840A9890143A1826846FFF722FE04
:100710001948844201D1039800E00298A189090494
:1007200000EBC00101EB0010296801D5490000E091
:100730008900B0FBF1F06422B0FBF2F109010B0972
:100740006FF018056B4300EB8300A3891D044FF085
:10075000320306D503EBC000B0FBF2F000F0070057
:1007600005E003EB0010B0FBF2F000F00F000843CF
:10077000208105B030BD000000380140FEE70000D8
:100780000FB4054B10B503A9044A029800F018F8FD
:1007900010BC5DF814FB0000D50E000844000020DA
:1007A00002E008C8121F08C1002AFAD1704770473A
:1007B000002001E001C1121F002AFBD17047000098
:1007C0002DE9FF4F8BB09A460F460546002606E0FE
:1007D00025280BD052460D9990476D1C761C287821
:1007E0000028F5D10FB03046BDE8F08F0024A046B8
:1007F0000122604900E0044315F8013F203B02FA62
:1008000003F00842F7D128782E2817D115F8010FE8
:1008100044F004042A280ED06FF02F022878A0F1AB
:10082000300109290AD808EB880102EB410100EBED
:1008300001086D1CF2E757F8048B6D1C28786928B5
:100840003ED006DC0028CDD063280BD0642804D12C
:1008500036E0732810D075284BD052460D9990473A
:10086000761C85E017F8040B8DF8000000208DF849
:100870000100E946012003E057F8049B4FF0FF30E8
:1008800061074FF0000401D40AE0641C44450DDA0E
:100890008442FADB19F804100029F6D106E0641C42
:1008A0008442FCDB19F804100029F8D1264404E046
:1008B00019F8010B52460D999047641EF8D257E083
:1008C00001CF4FF00A0B002802DA40422D2102E04E
:1008D000210504D52B218DF82410012103E0E10727
:1008E00005D02021F7E70DF1200908910CE0002147
:1008F000F9E701CF4FF00A0BF9E75946FFF71CFC67
:1009000001F1300209F8012D0028F6D1ADEB090004
:1009100000F1200B600701D44FF00108D84502DD3B
:10092000A8EB0B0000E000208046002406E009A8A8
:100930005246005D0D999047641C761C08988442CD
:10094000F5DB04E0302052460D999047761CB8F153
:100950000001A8F10108F5DC05E019F8010B524689
:100960000D999047761CBBF10001ABF1010BF4DC53
:100970006D1C34E70928010000F040BB38B54FF486
:100980000070ADF8000003208DF8020018201C4D07
:100990008DF803004FF4E13469462846FFF7F6FB73
:1009A0002815ADF8000004208DF80300694628469C
:1009B000FFF7ECFB204600F0BFFA25208DF8000081
:1009C00000208DF801008DF8020001208DF8030051
:1009D0006846FFF72FFC0B49AA1501F5887000F057
:1009E000BEF80949094800F0B9F9084808A12038BB
:1009F000016009494160BDE8384000F07BB8000063
:100A000000080140480000206D1000086801002027
:100A100075617274310000000000002000F00EBA11
:100A200010B5FFF777FC4FF480342046FFF704FD44
:100A30003120FFF7D7FC0028FAD0194902200860BE
:100A40000020FFF7EFFC0020FFF71AFD4FF4806055
:100A5000FFF70CFD4FF4E0112046FFF721FD0120C8
:100A6000FFF718FD3920FFF7BDFC0028FAD002205F
:100A7000FFF720FDFFF7CEFC0828FBD10021000680
:100A8000FFF724FC4FF44070FFF706FC0420FFF74B
:100A900097FD00F039FABDE81040FFF76BBD00008C
:100AA0000020024018B143689B6903B11847002039
:100AB0007047000070B505460748046805E0294600
:100AC0002068FFF72BFB20B1E468002CF7D1002051
:100AD00070BD204670BD00003C00002030B428B13D
:100AE0004468E46814B1A44630BC604730BC0020C0
:100AF000704700002DE9F041040013D0104D01268D
:100B00002F6805E021683868FFF708FB50B1FF68DF
:100B1000002FF7D12068002220B1606810B128684A
:100B200018B105E00020BDE8F0812C6004E0084623
:100B3000C1680029FBD1C4603046E260F3E70000E1
:100B40003C0000208160704730B428B144682469BB
:100B500014B1A44630BC604730BC0020704719B1C6
:100B600012B1531E134201D00020704701608380F0
:100B700000218160C160012070472DE9F0410F46DE
:100B800006000BD052B1B068F1680025081A824205
:100B900000D302461446002801D03FB90020BDE82A
:100BA000F081791930466D1C00F080F9A542F8D328
:100BB0002046F4E72DE9F0410F4606000ED06AB159
:100BC000B068F1680025081AB188081A401C8242F2
:100BD00000D302461446002801D03FB90020BDE8EA
:100BE000F081795D30466D1C00F06AF9A542F8D3BA
:100BF0002046F4E72DE9F04106460F480D464468CB
:100C000000F074F9074600F017F90DE0207831780C
:100C1000884208D1606928436061384600F081F954
:100C20000120BDE8F081E469002CEFD1384600F0E6
:100C300078F90020F5E70000300000202DE9F041B0
:100C4000194D0F4604466E6800F050F9804600F0DA
:100C5000F3F81CB1204600F029F828B1404600F016
:100C600060F90020BDE8F08100206074012161720C
:100C70002174C4E90507696839B92978491C2970C4
:100C8000297821706C6009E00E46F1690029FBD1DA
:100C90002978491C297029782170F461E061404667
:100CA00000F03FF90120DDE73000002006494968E7
:100CB00006E00A7803789A4201D101207047C96999
:100CC0000029F6D100207047300000202DE9F041C6
:100CD000214D00266C683BE0607C012813D1607ACE
:100CE00088B1E068A968081A0DD400F0FFF807463B
:100CF00000F0A2F8012020746068A9680844E06050
:100D0000384600F00EF9207C08B3A06968B1676925
:100D100047B100F0EBF8804600F08EF8404666617F
:100D200000F0FFF8A16938468847607C012808D1A7
:100D300000F0DCF8074600F07FF82674384600F033
:100D4000F0F8207A18B1607C012800D16672E4695D
:100D5000002CC1D1BDE8F081300000202DE9F04128
:100D60001B4D0F4604466E6800F0C0F8804600F048
:100D700063F81CB12046FFF799FF28B1404600F008
:100D8000D0F80020BDE8F0810121617400202074BA
:100D9000606021726072E060C4E90507696839B972
:100DA0002978491C2970297821706C6009E00E4669
:100DB000F1690029FBD12978491C29702978217013
:100DC000F461E061404600F0ACF80120DAE7000091
:100DD000300000202DE9F047124F164688460446A1
:100DE0007D6800F083F8814600F026F813E028784B
:100DF000217888420ED1666084F8088001206072F4
:100E0000B9683144E1606074484600F08AF8012016
:100E1000BDE8F087ED69002DE9D1484600F081F882
:100E20000020F5E73000002002488168491C8160FD
:100E3000704700003000002072B6704770B5124C49
:100E4000124D03E00CB120688047241DAC42F9D359
:100E50000F4C104D03E00CB120688047241DAC42BC
:100E6000F9D30D4C0D4D03E00CB120688047241DD3
:100E7000AC42F9D30A4C0B4D03E00CB1206880471B
:100E8000241DAC42F9D370BDA0100008A4100008C6
:100E90000000000000000000A4100008A8100008D6
:100EA000000000000000000062B67047826883887E
:100EB0001A4003689A5C0A708168491C8160704717
:100EC000C26883881A4003689954C168491CC1608C
:100ED0007047000004490A885206FCD5024AC1B294
:100EE000121D11807047000000380140EFF31080A0
:100EF0007047FFF7A1FFFFF791FDFFF73DFDFFF7FB
:100F0000D3FFFFF7E3FEFCE710B5012145F23D00FA
:100F1000FFF7F4F9BDE8104001214FF0C050FFF792
:100F2000E1B980F31088704710B511B1086800F07E
:100F300003F8002010BD00001FB5104C00900020E9
:100F4000ADF80400ADF80600ADF80800ADF80C00EF
:100F50000C20ADF80A0069462046FFF7B9FB0122D4
:100F600040F225512046FFF79AFB01212046FFF76A
:100F70008CFB20212046FFF785FB1FBD0038014078
:100F800011461A460148FFF7F8BD0000580100203D
:100F900030B514469DB203E02078FFF769FB641C6E
:100FA0006D1EADB2F8D2184630BD000070B5800796
:100FB00017D50D4D80230B4A00212868FFF78EFDC1
:100FC00004000ED0014609A0FFF7DAFB2346054ACC
:100FD00000212868FFF7B8FDBDE8704006A0FFF7C4
:100FE000CFBB70BD88010020400000205541525405
:100FF0002D52583A25643A000D0A000038B50EA06B
:10100000FFF758FD0E4C206018B90EA110A0FFF795
:10101000B7FB14492068FFF795FD4FF4E1300090CD
:10102000002269462068FFF73DFDBDE838400E49C3
:101030000C48FFF703BE00007561727431000000B8
:1010400040000020756172745F64657600000000E6
:10105000425547206174206173736572742825734B
:10106000290A000008020020AD0F0008034880682C
:10107000002802D00221FFF7BDBD704748010020C3
:10108000A81000080000002048000000A007000889
:10109000F010000848000020E0050000B00700083C
:1010A000210A00087D09000800000000000000007F
:1010B00000000000810F0008910F000800000000F0
:1010C000290F0008020406080000000001020304C2
:1010D00001020304060708090000000000000000E8
:1010E0000000000000000000000000000000000000
:04000005080000ED02
:00000001FF
